{
  "_format": "hh-sol-artifact-1",
  "contractName": "Marketplace",
  "sourceName": "contracts/Marketplace.sol",
  "abi": [
    {
      "inputs": [
        {
          "internalType": "uint256",
          "name": "platformFeePercent",
          "type": "uint256"
        }
      ],
      "stateMutability": "nonpayable",
      "type": "constructor"
    },
    {
      "inputs": [],
      "name": "Marketplace__CannotBuyOwnItem",
      "type": "error"
    },
    {
      "inputs": [],
      "name": "Marketplace__InsufficientPayment",
      "type": "error"
    },
    {
      "inputs": [],
      "name": "Marketplace__InsufficientQuantity",
      "type": "error"
    },
    {
      "inputs": [],
      "name": "Marketplace__InvalidPrice",
      "type": "error"
    },
    {
      "inputs": [],
      "name": "Marketplace__InvalidQuantity",
      "type": "error"
    },
    {
      "inputs": [],
      "name": "Marketplace__ItemNotActive",
      "type": "error"
    },
    {
      "inputs": [],
      "name": "Marketplace__ItemNotFound",
      "type": "error"
    },
    {
      "inputs": [],
      "name": "Marketplace__NotItemOwner",
      "type": "error"
    },
    {
      "inputs": [],
      "name": "Marketplace__TransferFailed",
      "type": "error"
    },
    {
      "inputs": [],
      "name": "Ownable__InvalidAddress",
      "type": "error"
    },
    {
      "inputs": [],
      "name": "Ownable__NotOwner",
      "type": "error"
    },
    {
      "anonymous": false,
      "inputs": [
        {
          "indexed": true,
          "internalType": "uint256",
          "name": "itemId",
          "type": "uint256"
        }
      ],
      "name": "ItemDeactivated",
      "type": "event"
    },
    {
      "anonymous": false,
      "inputs": [
        {
          "indexed": true,
          "internalType": "uint256",
          "name": "itemId",
          "type": "uint256"
        },
        {
          "indexed": true,
          "internalType": "address",
          "name": "seller",
          "type": "address"
        }
      ],
      "name": "ItemDeleted",
      "type": "event"
    },
    {
      "anonymous": false,
      "inputs": [
        {
          "indexed": true,
          "internalType": "uint256",
          "name": "itemId",
          "type": "uint256"
        },
        {
          "indexed": true,
          "internalType": "address",
          "name": "seller",
          "type": "address"
        },
        {
          "indexed": false,
          "internalType": "string",
          "name": "name",
          "type": "string"
        },
        {
          "indexed": false,
          "internalType": "uint256",
          "name": "price",
          "type": "uint256"
        },
        {
          "indexed": false,
          "internalType": "uint256",
          "name": "quantity",
          "type": "uint256"
        }
      ],
      "name": "ItemListed",
      "type": "event"
    },
    {
      "anonymous": false,
      "inputs": [
        {
          "indexed": true,
          "internalType": "uint256",
          "name": "itemId",
          "type": "uint256"
        },
        {
          "indexed": true,
          "internalType": "address",
          "name": "buyer",
          "type": "address"
        },
        {
          "indexed": true,
          "internalType": "address",
          "name": "seller",
          "type": "address"
        },
        {
          "indexed": false,
          "internalType": "uint256",
          "name": "quantity",
          "type": "uint256"
        },
        {
          "indexed": false,
          "internalType": "uint256",
          "name": "totalPrice",
          "type": "uint256"
        }
      ],
      "name": "ItemPurchased",
      "type": "event"
    },
    {
      "anonymous": false,
      "inputs": [
        {
          "indexed": true,
          "internalType": "uint256",
          "name": "itemId",
          "type": "uint256"
        },
        {
          "indexed": false,
          "internalType": "string",
          "name": "name",
          "type": "string"
        },
        {
          "indexed": false,
          "internalType": "uint256",
          "name": "price",
          "type": "uint256"
        },
        {
          "indexed": false,
          "internalType": "uint256",
          "name": "quantity",
          "type": "uint256"
        }
      ],
      "name": "ItemUpdated",
      "type": "event"
    },
    {
      "anonymous": false,
      "inputs": [
        {
          "indexed": true,
          "internalType": "address",
          "name": "previousOwner",
          "type": "address"
        },
        {
          "indexed": true,
          "internalType": "address",
          "name": "newOwner",
          "type": "address"
        }
      ],
      "name": "OwnershipTransferred",
      "type": "event"
    },
    {
      "inputs": [
        {
          "internalType": "uint256",
          "name": "itemId",
          "type": "uint256"
        },
        {
          "internalType": "uint256",
          "name": "quantity",
          "type": "uint256"
        }
      ],
      "name": "buyItem",
      "outputs": [],
      "stateMutability": "payable",
      "type": "function"
    },
    {
      "inputs": [
        {
          "internalType": "uint256",
          "name": "itemId",
          "type": "uint256"
        }
      ],
      "name": "deleteItem",
      "outputs": [],
      "stateMutability": "nonpayable",
      "type": "function"
    },
    {
      "inputs": [],
      "name": "getAverageSalePrice",
      "outputs": [
        {
          "internalType": "uint256",
          "name": "",
          "type": "uint256"
        }
      ],
      "stateMutability": "view",
      "type": "function"
    },
    {
      "inputs": [
        {
          "internalType": "uint256",
          "name": "itemId",
          "type": "uint256"
        }
      ],
      "name": "getItem",
      "outputs": [
        {
          "components": [
            {
              "internalType": "uint256",
              "name": "id",
              "type": "uint256"
            },
            {
              "internalType": "string",
              "name": "name",
              "type": "string"
            },
            {
              "internalType": "string",
              "name": "description",
              "type": "string"
            },
            {
              "internalType": "uint256",
              "name": "price",
              "type": "uint256"
            },
            {
              "internalType": "uint256",
              "name": "quantity",
              "type": "uint256"
            },
            {
              "internalType": "address",
              "name": "seller",
              "type": "address"
            },
            {
              "internalType": "bool",
              "name": "active",
              "type": "bool"
            },
            {
              "internalType": "bytes32",
              "name": "category",
              "type": "bytes32"
            }
          ],
          "internalType": "struct Marketplace.Item",
          "name": "",
          "type": "tuple"
        }
      ],
      "stateMutability": "view",
      "type": "function"
    },
    {
      "inputs": [],
      "name": "getMarketplaceReport",
      "outputs": [
        {
          "components": [
            {
              "internalType": "uint256",
              "name": "totalSales",
              "type": "uint256"
            },
            {
              "internalType": "uint256",
              "name": "totalRevenue",
              "type": "uint256"
            },
            {
              "internalType": "uint256",
              "name": "totalItemsListed",
              "type": "uint256"
            },
            {
              "internalType": "uint256",
              "name": "activeListings",
              "type": "uint256"
            }
          ],
          "internalType": "struct MarketplaceReporting.SalesReport",
          "name": "",
          "type": "tuple"
        }
      ],
      "stateMutability": "view",
      "type": "function"
    },
    {
      "inputs": [],
      "name": "getPlatformFeePercent",
      "outputs": [
        {
          "internalType": "uint256",
          "name": "",
          "type": "uint256"
        }
      ],
      "stateMutability": "view",
      "type": "function"
    },
    {
      "inputs": [
        {
          "internalType": "address",
          "name": "buyer",
          "type": "address"
        }
      ],
      "name": "getPurchaseHistory",
      "outputs": [
        {
          "internalType": "uint256[]",
          "name": "",
          "type": "uint256[]"
        }
      ],
      "stateMutability": "view",
      "type": "function"
    },
    {
      "inputs": [
        {
          "internalType": "address",
          "name": "seller",
          "type": "address"
        }
      ],
      "name": "getSellerItems",
      "outputs": [
        {
          "internalType": "uint256[]",
          "name": "",
          "type": "uint256[]"
        }
      ],
      "stateMutability": "view",
      "type": "function"
    },
    {
      "inputs": [
        {
          "internalType": "address",
          "name": "seller",
          "type": "address"
        }
      ],
      "name": "getSellerStats",
      "outputs": [
        {
          "components": [
            {
              "internalType": "uint256",
              "name": "itemsListed",
              "type": "uint256"
            },
            {
              "internalType": "uint256",
              "name": "itemsSold",
              "type": "uint256"
            },
            {
              "internalType": "uint256",
              "name": "totalRevenue",
              "type": "uint256"
            }
          ],
          "internalType": "struct MarketplaceReporting.SellerReport",
          "name": "",
          "type": "tuple"
        }
      ],
      "stateMutability": "view",
      "type": "function"
    },
    {
      "inputs": [
        {
          "internalType": "string",
          "name": "name",
          "type": "string"
        },
        {
          "internalType": "string",
          "name": "description",
          "type": "string"
        },
        {
          "internalType": "uint256",
          "name": "price",
          "type": "uint256"
        },
        {
          "internalType": "uint256",
          "name": "quantity",
          "type": "uint256"
        },
        {
          "internalType": "bytes32",
          "name": "category",
          "type": "bytes32"
        }
      ],
      "name": "listItem",
      "outputs": [
        {
          "internalType": "uint256",
          "name": "",
          "type": "uint256"
        }
      ],
      "stateMutability": "nonpayable",
      "type": "function"
    },
    {
      "inputs": [],
      "name": "owner",
      "outputs": [
        {
          "internalType": "address",
          "name": "",
          "type": "address"
        }
      ],
      "stateMutability": "view",
      "type": "function"
    },
    {
      "inputs": [
        {
          "internalType": "uint256",
          "name": "newFeePercent",
          "type": "uint256"
        }
      ],
      "name": "setPlatformFeePercent",
      "outputs": [],
      "stateMutability": "nonpayable",
      "type": "function"
    },
    {
      "inputs": [
        {
          "internalType": "address",
          "name": "newOwner",
          "type": "address"
        }
      ],
      "name": "transferOwnership",
      "outputs": [],
      "stateMutability": "nonpayable",
      "type": "function"
    },
    {
      "inputs": [
        {
          "internalType": "uint256",
          "name": "itemId",
          "type": "uint256"
        },
        {
          "internalType": "string",
          "name": "name",
          "type": "string"
        },
        {
          "internalType": "string",
          "name": "description",
          "type": "string"
        },
        {
          "internalType": "uint256",
          "name": "price",
          "type": "uint256"
        },
        {
          "internalType": "uint256",
          "name": "quantity",
          "type": "uint256"
        }
      ],
      "name": "updateItem",
      "outputs": [],
      "stateMutability": "nonpayable",
      "type": "function"
    },
    {
      "inputs": [],
      "name": "withdrawPlatformFees",
      "outputs": [],
      "stateMutability": "nonpayable",
      "type": "function"
    }
  ],
  "bytecode": "0x608060405234801561001057600080fd5b5060405161171c38038061171c83398101604081905261002f9161007a565b600080546001600160a01b0319163390811782556040519091907f8be0079c531659141344cd1fd0a4f28419497f9722a3daafe3b4186f6b6457e0908290a360045560018055610093565b60006020828403121561008c57600080fd5b5051919050565b61167a806100a26000396000f3fe6080604052600436106100e85760003560e01c80639978d4871161008a578063ce36ab7f11610059578063ce36ab7f14610289578063d0b7830b146102cb578063d3cbb62b146102e0578063f2fde38b1461030057600080fd5b80639978d487146102215780639979c00914610241578063aa25936f14610254578063cab230d21461026957600080fd5b80634c9c3f85116100c65780634c9c3f85146101985780634f6a013c146101b7578063654fc833146101d75780638da5cb5b146101f957600080fd5b806307725015146100ed578063210344441461013e5780633129e7731461016b575b600080fd5b3480156100f957600080fd5b50610102610320565b60405161013591908151815260208083015190820152604080830151908201526060918201519181019190915260800190565b60405180910390f35b34801561014a57600080fd5b5061015e610159366004611129565b6103dc565b6040516101359190611152565b34801561017757600080fd5b5061018b610186366004611196565b610448565b60405161013591906111f5565b3480156101a457600080fd5b506004545b604051908152602001610135565b3480156101c357600080fd5b506101a96101d236600461132e565b610673565b3480156101e357600080fd5b506101f76101f2366004611196565b610834565b005b34801561020557600080fd5b506000546040516001600160a01b039091168152602001610135565b34801561022d57600080fd5b506101f761023c3660046113ad565b6108f9565b6101f761024f36600461142c565b610a39565b34801561026057600080fd5b506101a9610dfa565b34801561027557600080fd5b506101f7610284366004611196565b610e0f565b34801561029557600080fd5b506102a96102a4366004611129565b610e3f565b6040805182518152602080840151908201529181015190820152606001610135565b3480156102d757600080fd5b506101f7610eb5565b3480156102ec57600080fd5b5061015e6102fb366004611129565b610f6a565b34801561030c57600080fd5b506101f761031b366004611129565b610fd4565b61034b6040518060800160405280600081526020016000815260200160008152602001600081525090565b600060015b6001548110156103b85760008181526005602081905260409091200154600160a01b900460ff168015610393575060008181526005602052604090206004015415155b156103a657816103a281611464565b9250505b806103b081611464565b915050610350565b506103d6600254600354600180546103d0919061147d565b84611076565b91505090565b6001600160a01b03811660009081526008602090815260409182902080548351818402810184019094528084526060939283018282801561043c57602002820191906000526020600020905b815481526020019060010190808311610428575b50505050509050919050565b61049e604051806101000160405280600081526020016060815260200160608152602001600081526020016000815260200160006001600160a01b03168152602001600015158152602001600080191681525090565b6000828152600560208190526040909120015482906001600160a01b03166104d957604051630224a94d60e21b815260040160405180910390fd5b60056000848152602001908152602001600020604051806101000160405290816000820154815260200160018201805461051290611490565b80601f016020809104026020016040519081016040528092919081815260200182805461053e90611490565b801561058b5780601f106105605761010080835404028352916020019161058b565b820191906000526020600020905b81548152906001019060200180831161056e57829003601f168201915b505050505081526020016002820180546105a490611490565b80601f01602080910402602001604051908101604052809291908181526020018280546105d090611490565b801561061d5780601f106105f25761010080835404028352916020019161061d565b820191906000526020600020905b81548152906001019060200180831161060057829003601f168201915b5050509183525050600382015460208201526004820154604082015260058201546001600160a01b0381166060830152600160a01b900460ff161515608082015260069091015460a09091015291505b50919050565b60008380600003610697576040516323de483d60e01b815260040160405180910390fd5b83806000036106b957604051631e28cb1960e31b815260040160405180910390fd5b60018054600091826106ca83611464565b90915550604080516101008101825282815260208082018d81528284018d9052606083018c9052608083018b90523360a0840152600160c0840181905260e084018b90526000868152600590935293909120825181559051939450909290918201906107369082611513565b506040820151600282019061074b9082611513565b50606082015160038201556080820151600482015560a082015160058201805460c08501511515600160a01b026001600160a81b03199091166001600160a01b039093169290921791909117905560e09091015160069182015533600081815260209283526040808220805460018101825590835284832001859055918152600790925281208054916107dd83611464565b9190505550336001600160a01b0316817feff9c77bc81011526aa06258443e09f9e394f6f3511c79459acbc785812607ff8b8a8a604051610820939291906115d3565b60405180910390a398975050505050505050565b6000818152600560208190526040909120015481906001600160a01b031661086f57604051630224a94d60e21b815260040160405180910390fd5b6000828152600560208190526040909120015482906001600160a01b031633146108ac576040516324a02ad960e01b815260040160405180910390fd5b6000838152600560208190526040808320909101805460ff60a01b1916905551339185917f9b589d4dfb81ae7acb7d4f028ed8be6d247247fe765ebbcd79279e3a28790f2e9190a3505050565b6000858152600560208190526040909120015485906001600160a01b031661093457604051630224a94d60e21b815260040160405180910390fd5b6000868152600560208190526040909120015486906001600160a01b03163314610971576040516324a02ad960e01b815260040160405180910390fd5b8380600003610993576040516323de483d60e01b815260040160405180910390fd5b83806000036109b557604051631e28cb1960e31b815260040160405180910390fd5b6000898152600560205260409020600181016109d18a82611513565b50600281016109e08982611513565b5060038101879055600481018690556040518a907fa5e7879d7b96ea686acfabf5ebc444a95b3a0bd7b0dab5bd93f9b9b86878040490610a25908c908b908b906115d3565b60405180910390a250505050505050505050565b6000828152600560208190526040909120015482906001600160a01b0316610a7457604051630224a94d60e21b815260040160405180910390fd5b8180600003610a9657604051631e28cb1960e31b815260040160405180910390fd5b600084815260056020819052604090912090810154600160a01b900460ff16610ad257604051630e82fcd960e41b815260040160405180910390fd5b6005810154336001600160a01b0390911603610b0157604051635258897560e11b815260040160405180910390fd5b8381600401541015610b2657604051638b5e6f5360e01b815260040160405180910390fd5b6000848260030154610b3891906115f8565b905080341015610b5b57604051630d7facf360e31b815260040160405180910390fd5b84826004016000828254610b6f919061147d565b90915550506004820154600003610bbb5760058201805460ff60a01b1916905560405186907f3d354d836c0997e6f0d3503a155eee7afdf69b299353b61007f9d71ccbb48a6a90600090a25b6000606460045483610bcd91906115f8565b610bd7919061160f565b90506000610be5828461147d565b60058501546001600160a01b0316600090815260076020526040812060010180549293508992909190610c19908490611631565b909155505060058401546001600160a01b031660009081526007602052604081206002018054839290610c4d908490611631565b925050819055508660026000828254610c669190611631565b925050819055508260036000828254610c7f9190611631565b909155505033600090815260086020908152604080832080546001810182559084529183209091018a9055600586015490516001600160a01b039091169083908381818185875af1925050503d8060008114610cf7576040519150601f19603f3d011682016040523d82523d6000602084013e610cfc565b606091505b5050905080610d1e57604051633a06d36960e01b815260040160405180910390fd5b83341115610da1576000610d32853461147d565b604051909150600090339083908381818185875af1925050503d8060008114610d77576040519150601f19603f3d011682016040523d82523d6000602084013e610d7c565b606091505b5050905080610d9e57604051633a06d36960e01b815260040160405180910390fd5b50505b6005850154604080518a8152602081018790526001600160a01b039092169133918c917f3970dfcf6c5051e70a042aba5e1c65c1bceb2acd5aaf4e6246d7cd1dedb21aa3910160405180910390a4505050505050505050565b6000610e0a6003546002546110c3565b905090565b6000546001600160a01b03163314610e3a57604051632f7a8ee160e01b815260040160405180910390fd5b600455565b610e6360405180606001604052806000815260200160008152602001600081525090565b6001600160a01b03821660009081526007602090815260409182902082516060810184528154808252600183015493820184905260029092015493810184905292610eae92906110e8565b9392505050565b6000546001600160a01b03163314610ee057604051632f7a8ee160e01b815260040160405180910390fd5b476000610ef56000546001600160a01b031690565b6001600160a01b03168260405160006040518083038185875af1925050503d8060008114610f3f576040519150601f19603f3d011682016040523d82523d6000602084013e610f44565b606091505b5050905080610f6657604051633a06d36960e01b815260040160405180910390fd5b5050565b6001600160a01b03811660009081526006602090815260409182902080548351818402810184019094528084526060939283018282801561043c57602002820191906000526020600020908154815260200190600101908083116104285750505050509050919050565b6000546001600160a01b03163314610fff57604051632f7a8ee160e01b815260040160405180910390fd5b6001600160a01b03811661102657604051635f042d6160e01b815260040160405180910390fd5b600080546001600160a01b038381166001600160a01b0319831681178455604051919092169283917f8be0079c531659141344cd1fd0a4f28419497f9722a3daafe3b4186f6b6457e09190a35050565b6110a16040518060800160405280600081526020016000815260200160008152602001600081525090565b5060408051608081018252948552602085019390935291830152606082015290565b6000816000036110d5575060006110e2565b6110df828461160f565b90505b92915050565b61110c60405180606001604052806000815260200160008152602001600081525090565b506040805160608101825293845260208401929092529082015290565b60006020828403121561113b57600080fd5b81356001600160a01b0381168114610eae57600080fd5b6020808252825182820181905260009190848201906040850190845b8181101561118a5783518352928401929184019160010161116e565b50909695505050505050565b6000602082840312156111a857600080fd5b5035919050565b6000815180845260005b818110156111d5576020818501810151868301820152016111b9565b506000602082860101526020601f19601f83011685010191505092915050565b60208152815160208201526000602083015161010080604085015261121e6101208501836111af565b91506040850151601f1985840301606086015261123b83826111af565b92505060608501516080850152608085015160a085015260018060a01b0360a08601511660c085015260c085015161127760e086018215159052565b5060e0949094015192909301919091525090565b634e487b7160e01b600052604160045260246000fd5b600082601f8301126112b257600080fd5b813567ffffffffffffffff808211156112cd576112cd61128b565b604051601f8301601f19908116603f011681019082821181831017156112f5576112f561128b565b8160405283815286602085880101111561130e57600080fd5b836020870160208301376000602085830101528094505050505092915050565b600080600080600060a0868803121561134657600080fd5b853567ffffffffffffffff8082111561135e57600080fd5b61136a89838a016112a1565b9650602088013591508082111561138057600080fd5b5061138d888289016112a1565b959895975050505060408401359360608101359360809091013592509050565b600080600080600060a086880312156113c557600080fd5b85359450602086013567ffffffffffffffff808211156113e457600080fd5b6113f089838a016112a1565b9550604088013591508082111561140657600080fd5b50611413888289016112a1565b9598949750949560608101359550608001359392505050565b6000806040838503121561143f57600080fd5b50508035926020909101359150565b634e487b7160e01b600052601160045260246000fd5b6000600182016114765761147661144e565b5060010190565b818103818111156110e2576110e261144e565b600181811c908216806114a457607f821691505b60208210810361066d57634e487b7160e01b600052602260045260246000fd5b601f82111561150e57600081815260208120601f850160051c810160208610156114eb5750805b601f850160051c820191505b8181101561150a578281556001016114f7565b5050505b505050565b815167ffffffffffffffff81111561152d5761152d61128b565b6115418161153b8454611490565b846114c4565b602080601f831160018114611576576000841561155e5750858301515b600019600386901b1c1916600185901b17855561150a565b600085815260208120601f198616915b828110156115a557888601518255948401946001909101908401611586565b50858210156115c35787850151600019600388901b60f8161c191681555b5050505050600190811b01905550565b6060815260006115e660608301866111af565b60208301949094525060400152919050565b80820281158282048414176110e2576110e261144e565b60008261162c57634e487b7160e01b600052601260045260246000fd5b500490565b808201808211156110e2576110e261144e56fea26469706673582212203f4a622c37c315c2edeac0e6b56f29e4fe5b25c1c0199a4fb0594ca27a3fe5d464736f6c63430008140033",
  "linkReferences": {},
  "deployedLinkReferences": {}
}